{"abi":[{"type":"constructor","inputs":[{"name":"_tangleCore","type":"address","internalType":"address"}],"stateMutability":"nonpayable"},{"type":"receive","stateMutability":"payable"},{"type":"function","name":"basePricePerToken","inputs":[{"name":"","type":"uint64","internalType":"uint64"}],"outputs":[{"name":"","type":"uint256","internalType":"uint256"}],"stateMutability":"view"},{"type":"function","name":"blueprintId","inputs":[],"outputs":[{"name":"","type":"uint64","internalType":"uint64"}],"stateMutability":"view"},{"type":"function","name":"blueprintOwner","inputs":[],"outputs":[{"name":"","type":"address","internalType":"address"}],"stateMutability":"view"},{"type":"function","name":"canJoin","inputs":[{"name":"","type":"uint64","internalType":"uint64"},{"name":"","type":"address","internalType":"address"}],"outputs":[{"name":"","type":"bool","internalType":"bool"}],"stateMutability":"view"},{"type":"function","name":"canLeave","inputs":[{"name":"","type":"uint64","internalType":"uint64"},{"name":"","type":"address","internalType":"address"}],"outputs":[{"name":"","type":"bool","internalType":"bool"}],"stateMutability":"view"},{"type":"function","name":"createPipeline","inputs":[{"name":"modelId","type":"string","internalType":"string"},{"name":"totalLayers","type":"uint32","internalType":"uint32"},{"name":"pricePerToken","type":"uint256","internalType":"uint256"}],"outputs":[{"name":"pipelineId","type":"uint64","internalType":"uint64"}],"stateMutability":"nonpayable"},{"type":"function","name":"forceRemoveAllowsBelowMin","inputs":[{"name":"","type":"uint64","internalType":"uint64"}],"outputs":[{"name":"","type":"bool","internalType":"bool"}],"stateMutability":"view"},{"type":"function","name":"getAggregationThreshold","inputs":[{"name":"","type":"uint64","internalType":"uint64"},{"name":"","type":"uint8","internalType":"uint8"}],"outputs":[{"name":"","type":"uint16","internalType":"uint16"},{"name":"","type":"uint8","internalType":"uint8"}],"stateMutability":"view"},{"type":"function","name":"getExitConfig","inputs":[{"name":"","type":"uint64","internalType":"uint64"}],"outputs":[{"name":"useDefault","type":"bool","internalType":"bool"},{"name":"minCommitmentDuration","type":"uint64","internalType":"uint64"},{"name":"exitQueueDuration","type":"uint64","internalType":"uint64"},{"name":"forceExitAllowed","type":"bool","internalType":"bool"}],"stateMutability":"view"},{"type":"function","name":"getHeartbeatInterval","inputs":[{"name":"","type":"uint64","internalType":"uint64"}],"outputs":[{"name":"useDefault","type":"bool","internalType":"bool"},{"name":"interval","type":"uint64","internalType":"uint64"}],"stateMutability":"view"},{"type":"function","name":"getHeartbeatThreshold","inputs":[{"name":"","type":"uint64","internalType":"uint64"}],"outputs":[{"name":"useDefault","type":"bool","internalType":"bool"},{"name":"threshold","type":"uint8","internalType":"uint8"}],"stateMutability":"view"},{"type":"function","name":"getMinOperatorStake","inputs":[],"outputs":[{"name":"useDefault","type":"bool","internalType":"bool"},{"name":"minStake","type":"uint256","internalType":"uint256"}],"stateMutability":"view"},{"type":"function","name":"getNonPaymentTerminationPolicy","inputs":[{"name":"","type":"uint64","internalType":"uint64"}],"outputs":[{"name":"useDefault","type":"bool","internalType":"bool"},{"name":"graceIntervals","type":"uint64","internalType":"uint64"}],"stateMutability":"view"},{"type":"function","name":"getOperatorPricing","inputs":[{"name":"pipelineId","type":"uint64","internalType":"uint64"},{"name":"operator","type":"address","internalType":"address"}],"outputs":[{"name":"pricePerToken","type":"uint256","internalType":"uint256"}],"stateMutability":"view"},{"type":"function","name":"getPipelineOperators","inputs":[{"name":"pipelineId","type":"uint64","internalType":"uint64"}],"outputs":[{"name":"","type":"address[]","internalType":"address[]"}],"stateMutability":"view"},{"type":"function","name":"getRequiredResultCount","inputs":[{"name":"","type":"uint64","internalType":"uint64"},{"name":"","type":"uint8","internalType":"uint8"}],"outputs":[{"name":"","type":"uint32","internalType":"uint32"}],"stateMutability":"view"},{"type":"function","name":"getSlashingWindow","inputs":[{"name":"","type":"uint64","internalType":"uint64"}],"outputs":[{"name":"useDefault","type":"bool","internalType":"bool"},{"name":"window","type":"uint64","internalType":"uint64"}],"stateMutability":"view"},{"type":"function","name":"isFullyCovered","inputs":[{"name":"pipelineId","type":"uint64","internalType":"uint64"}],"outputs":[{"name":"","type":"bool","internalType":"bool"}],"stateMutability":"view"},{"type":"function","name":"joinPipeline","inputs":[{"name":"pipelineId","type":"uint64","internalType":"uint64"},{"name":"layerStart","type":"uint32","internalType":"uint32"},{"name":"layerEnd","type":"uint32","internalType":"uint32"}],"outputs":[],"stateMutability":"nonpayable"},{"type":"function","name":"layerRanges","inputs":[{"name":"","type":"uint64","internalType":"uint64"},{"name":"","type":"address","internalType":"address"}],"outputs":[{"name":"start","type":"uint32","internalType":"uint32"},{"name":"end","type":"uint32","internalType":"uint32"},{"name":"operator","type":"address","internalType":"address"}],"stateMutability":"view"},{"type":"function","name":"leavePipeline","inputs":[{"name":"pipelineId","type":"uint64","internalType":"uint64"}],"outputs":[],"stateMutability":"nonpayable"},{"type":"function","name":"nextPipelineId","inputs":[],"outputs":[{"name":"","type":"uint64","internalType":"uint64"}],"stateMutability":"view"},{"type":"function","name":"onAggregatedResult","inputs":[{"name":"","type":"uint64","internalType":"uint64"},{"name":"","type":"uint8","internalType":"uint8"},{"name":"","type":"uint64","internalType":"uint64"},{"name":"","type":"bytes","internalType":"bytes"},{"name":"","type":"uint256","internalType":"uint256"},{"name":"","type":"uint256[2]","internalType":"uint256[2]"},{"name":"","type":"uint256[4]","internalType":"uint256[4]"}],"outputs":[],"stateMutability":"nonpayable"},{"type":"function","name":"onApprove","inputs":[{"name":"","type":"address","internalType":"address"},{"name":"","type":"uint64","internalType":"uint64"},{"name":"","type":"uint8","internalType":"uint8"}],"outputs":[],"stateMutability":"payable"},{"type":"function","name":"onBlueprintCreated","inputs":[{"name":"_blueprintId","type":"uint64","internalType":"uint64"},{"name":"_owner","type":"address","internalType":"address"},{"name":"_tangleCore","type":"address","internalType":"address"}],"outputs":[],"stateMutability":"nonpayable"},{"type":"function","name":"onExitCanceled","inputs":[{"name":"","type":"uint64","internalType":"uint64"},{"name":"","type":"address","internalType":"address"}],"outputs":[],"stateMutability":"nonpayable"},{"type":"function","name":"onExitScheduled","inputs":[{"name":"","type":"uint64","internalType":"uint64"},{"name":"","type":"address","internalType":"address"},{"name":"","type":"uint64","internalType":"uint64"}],"outputs":[],"stateMutability":"nonpayable"},{"type":"function","name":"onJobCall","inputs":[{"name":"","type":"uint64","internalType":"uint64"},{"name":"","type":"uint8","internalType":"uint8"},{"name":"","type":"uint64","internalType":"uint64"},{"name":"","type":"bytes","internalType":"bytes"}],"outputs":[],"stateMutability":"payable"},{"type":"function","name":"onJobResult","inputs":[{"name":"","type":"uint64","internalType":"uint64"},{"name":"","type":"uint8","internalType":"uint8"},{"name":"","type":"uint64","internalType":"uint64"},{"name":"","type":"address","internalType":"address"},{"name":"","type":"bytes","internalType":"bytes"},{"name":"","type":"bytes","internalType":"bytes"}],"outputs":[],"stateMutability":"payable"},{"type":"function","name":"onOperatorJoined","inputs":[{"name":"","type":"uint64","internalType":"uint64"},{"name":"","type":"address","internalType":"address"},{"name":"","type":"uint16","internalType":"uint16"}],"outputs":[],"stateMutability":"nonpayable"},{"type":"function","name":"onOperatorLeft","inputs":[{"name":"","type":"uint64","internalType":"uint64"},{"name":"","type":"address","internalType":"address"}],"outputs":[],"stateMutability":"nonpayable"},{"type":"function","name":"onRegister","inputs":[{"name":"operator","type":"address","internalType":"address"},{"name":"registrationInputs","type":"bytes","internalType":"bytes"}],"outputs":[],"stateMutability":"payable"},{"type":"function","name":"onReject","inputs":[{"name":"","type":"address","internalType":"address"},{"name":"","type":"uint64","internalType":"uint64"}],"outputs":[],"stateMutability":"nonpayable"},{"type":"function","name":"onRequest","inputs":[{"name":"","type":"uint64","internalType":"uint64"},{"name":"","type":"address","internalType":"address"},{"name":"","type":"address[]","internalType":"address[]"},{"name":"","type":"bytes","internalType":"bytes"},{"name":"","type":"uint64","internalType":"uint64"},{"name":"","type":"address","internalType":"address"},{"name":"","type":"uint256","internalType":"uint256"}],"outputs":[],"stateMutability":"payable"},{"type":"function","name":"onServiceInitialized","inputs":[{"name":"","type":"uint64","internalType":"uint64"},{"name":"","type":"uint64","internalType":"uint64"},{"name":"","type":"uint64","internalType":"uint64"},{"name":"","type":"address","internalType":"address"},{"name":"","type":"address[]","internalType":"address[]"},{"name":"","type":"uint64","internalType":"uint64"}],"outputs":[],"stateMutability":"nonpayable"},{"type":"function","name":"onServiceTermination","inputs":[{"name":"","type":"uint64","internalType":"uint64"},{"name":"","type":"address","internalType":"address"}],"outputs":[],"stateMutability":"nonpayable"},{"type":"function","name":"onSlash","inputs":[{"name":"","type":"uint64","internalType":"uint64"},{"name":"","type":"bytes","internalType":"bytes"},{"name":"","type":"uint8","internalType":"uint8"}],"outputs":[],"stateMutability":"nonpayable"},{"type":"function","name":"onUnappliedSlash","inputs":[{"name":"","type":"uint64","internalType":"uint64"},{"name":"","type":"bytes","internalType":"bytes"},{"name":"","type":"uint8","internalType":"uint8"}],"outputs":[],"stateMutability":"nonpayable"},{"type":"function","name":"onUnregister","inputs":[{"name":"","type":"address","internalType":"address"}],"outputs":[],"stateMutability":"nonpayable"},{"type":"function","name":"onUpdatePreferences","inputs":[{"name":"","type":"address","internalType":"address"},{"name":"","type":"bytes","internalType":"bytes"}],"outputs":[],"stateMutability":"payable"},{"type":"function","name":"operatorCaps","inputs":[{"name":"","type":"address","internalType":"address"}],"outputs":[{"name":"layerStart","type":"uint32","internalType":"uint32"},{"name":"layerEnd","type":"uint32","internalType":"uint32"},{"name":"totalVramMib","type":"uint32","internalType":"uint32"},{"name":"endpoint","type":"string","internalType":"string"},{"name":"active","type":"bool","internalType":"bool"}],"stateMutability":"view"},{"type":"function","name":"operatorRevenue","inputs":[{"name":"","type":"uint64","internalType":"uint64"},{"name":"","type":"address","internalType":"address"}],"outputs":[{"name":"","type":"uint256","internalType":"uint256"}],"stateMutability":"view"},{"type":"function","name":"pipelineCount","inputs":[],"outputs":[{"name":"","type":"uint64","internalType":"uint64"}],"stateMutability":"view"},{"type":"function","name":"pipelines","inputs":[{"name":"","type":"uint64","internalType":"uint64"}],"outputs":[{"name":"modelId","type":"string","internalType":"string"},{"name":"totalLayers","type":"uint32","internalType":"uint32"},{"name":"active","type":"bool","internalType":"bool"},{"name":"createdAt","type":"uint256","internalType":"uint256"}],"stateMutability":"view"},{"type":"function","name":"queryDeveloperPaymentAddress","inputs":[{"name":"","type":"uint64","internalType":"uint64"}],"outputs":[{"name":"","type":"address","internalType":"address payable"}],"stateMutability":"view"},{"type":"function","name":"queryDisputeOrigin","inputs":[{"name":"","type":"uint64","internalType":"uint64"}],"outputs":[{"name":"","type":"address","internalType":"address"}],"stateMutability":"view"},{"type":"function","name":"queryIsPaymentAssetAllowed","inputs":[{"name":"serviceId","type":"uint64","internalType":"uint64"},{"name":"asset","type":"address","internalType":"address"}],"outputs":[{"name":"","type":"bool","internalType":"bool"}],"stateMutability":"view"},{"type":"function","name":"querySlashingOrigin","inputs":[{"name":"","type":"uint64","internalType":"uint64"}],"outputs":[{"name":"","type":"address","internalType":"address"}],"stateMutability":"view"},{"type":"function","name":"recordUsage","inputs":[{"name":"pipelineId","type":"uint64","internalType":"uint64"},{"name":"totalTokens","type":"uint256","internalType":"uint256"},{"name":"totalPayment","type":"uint256","internalType":"uint256"}],"outputs":[],"stateMutability":"nonpayable"},{"type":"function","name":"requiresAggregation","inputs":[{"name":"","type":"uint64","internalType":"uint64"},{"name":"","type":"uint8","internalType":"uint8"}],"outputs":[{"name":"","type":"bool","internalType":"bool"}],"stateMutability":"view"},{"type":"function","name":"tangleCore","inputs":[],"outputs":[{"name":"","type":"address","internalType":"address"}],"stateMutability":"view"},{"type":"event","name":"OperatorJoined","inputs":[{"name":"pipelineId","type":"uint64","indexed":true,"internalType":"uint64"},{"name":"operator","type":"address","indexed":true,"internalType":"address"},{"name":"layerStart","type":"uint32","indexed":false,"internalType":"uint32"},{"name":"layerEnd","type":"uint32","indexed":false,"internalType":"uint32"}],"anonymous":false},{"type":"event","name":"OperatorLeft","inputs":[{"name":"pipelineId","type":"uint64","indexed":true,"internalType":"uint64"},{"name":"operator","type":"address","indexed":true,"internalType":"address"}],"anonymous":false},{"type":"event","name":"PaymentDistributed","inputs":[{"name":"pipelineId","type":"uint64","indexed":true,"internalType":"uint64"},{"name":"operator","type":"address","indexed":true,"internalType":"address"},{"name":"amount","type":"uint256","indexed":false,"internalType":"uint256"}],"anonymous":false},{"type":"event","name":"PipelineActivated","inputs":[{"name":"pipelineId","type":"uint64","indexed":true,"internalType":"uint64"}],"anonymous":false},{"type":"event","name":"PipelineCreated","inputs":[{"name":"pipelineId","type":"uint64","indexed":true,"internalType":"uint64"},{"name":"modelId","type":"string","indexed":false,"internalType":"string"},{"name":"totalLayers","type":"uint32","indexed":false,"internalType":"uint32"}],"anonymous":false},{"type":"error","name":"AlreadyInitialized","inputs":[]},{"type":"error","name":"InsufficientVram","inputs":[{"name":"operator","type":"address","internalType":"address"},{"name":"required","type":"uint32","internalType":"uint32"},{"name":"available","type":"uint32","internalType":"uint32"}]},{"type":"error","name":"LayerRangeInvalid","inputs":[{"name":"start","type":"uint32","internalType":"uint32"},{"name":"end","type":"uint32","internalType":"uint32"},{"name":"totalLayers","type":"uint32","internalType":"uint32"}]},{"type":"error","name":"LayerRangeOverlap","inputs":[{"name":"pipelineId","type":"uint64","internalType":"uint64"},{"name":"start","type":"uint32","internalType":"uint32"},{"name":"end","type":"uint32","internalType":"uint32"}]},{"type":"error","name":"OnlyBlueprintOwnerAllowed","inputs":[{"name":"caller","type":"address","internalType":"address"},{"name":"owner","type":"address","internalType":"address"}]},{"type":"error","name":"OnlyTangleAllowed","inputs":[{"name":"caller","type":"address","internalType":"address"},{"name":"tangle","type":"address","internalType":"address"}]},{"type":"error","name":"OperatorAlreadyInPipeline","inputs":[{"name":"pipelineId","type":"uint64","internalType":"uint64"},{"name":"operator","type":"address","internalType":"address"}]},{"type":"error","name":"OperatorNotInPipeline","inputs":[{"name":"pipelineId","type":"uint64","internalType":"uint64"},{"name":"operator","type":"address","internalType":"address"}]},{"type":"error","name":"OperatorNotRegistered","inputs":[{"name":"operator","type":"address","internalType":"address"}]},{"type":"error","name":"PipelineNotActive","inputs":[{"name":"pipelineId","type":"uint64","internalType":"uint64"}]},{"type":"error","name":"PipelineNotFound","inputs":[{"name":"pipelineId","type":"uint64","internalType":"uint64"}]}],"bytecode":{"object":"0x608034606f57601f611fd538819003918201601f19168301916001600160401b03831184841017607357808492602094604052833981010312606f57516001600160a01b03811690819003606f575f80546001600160a01b031916919091179055604051611f4d90816100888239f35b5f80fd5b634e487b7160e01b5f52604160045260245ffdfe6080604052600436101561001a575b3615610018575f80fd5b005b5f3560e01c806268080b14610f7057806308179f35146118b85780630881898f14610e785780630b6535d7146117c057806314b4df4c14610f6b578063151a4576146117a7578063158bb2eb1461174057806319ed5bb21461171e57806325fcc64e146116ea5780632ab4d70a146107875780633629ab6d146112cb5780633fdadfcc14610f705780634c443e041461129d5780635440662c14610d5057806354dce6c21461127d5780635a936dc6146112565780635e7cb2281461121e57806367793cc614610ff05780636a3578c614610f7557806371e8e85d14610f7057806374ceeb5514610f6b5780637d41c7c114610e925780637e14b91914610e7857806382a1ece414610e1a57806392cbb78e14610df0578063965d231b14610d505780639838caa314610daa5780639aa26a9214610d72578063a24e8a9014610d50578063a53bf43214610a76578063b159eb3414610a50578063b47242e8146102da578063bc3e78e814610987578063bd1d453c1461090d578063c10bb5a2146108ba578063c28cd81214610849578063c40c80d1146107cf578063c9cd4a18146107ad578063ca4df49914610787578063cb110dc1146106fe578063d2672ed4146106c7578063e0559c6314610693578063e13422e51461055f578063e1ce778e14610338578063e364526514610315578063e390fcdb146102df578063e518de76146102da578063f3e28f32146102b6578063f58e2066146102a2578063f84076621461027a5763fe0b15e70361000e5734610276575f3660031901126102765760206001600160401b035f5460a01c16604051908152f35b5f80fd5b34610276575f366003190112610276576001546040516001600160a01b039091168152602090f35b6102ab36611a96565b505050610018611e32565b34610276576020366003190112610276576102cf6118ea565b5060206040515f8152f35b611c26565b3461027657604036600319011261027657602061030b6102fd6118ea565b6103056119f6565b90611de0565b6040519015158152f35b3461027657602036600319011261027657602061030b6103336118ea565b611e5e565b34610276576060366003190112610276576004356001600160401b03811161027657610368903690600401611958565b610370611a72565b90600354906001600160401b038216916001600160401b03831461054b576001600160401b036001840116906001600160401b03191617600355815f52600460205260405f20936001600160401b03821161053757846103dc836103d660209854611ad9565b83611d74565b5f601f84116001146104a957918363ffffffff869760609461043684807f4f464ebc31f59d1f5a074e241849c361041decd162b82e8498b53a71d657b7549a995f9161049e575b508160011b915f199060031b1c19161790565b81555b60028101838316841982541617815564ff00000000198154169055600342910155875f5260088a5260443560405f205560405195869460408652816040870152868601375f8484018601521688830152601f01601f19168101030190a2604051908152f35b90508701358e610423565b601f19841690825f52875f20915f5b8181106105205750869760609487969487947f4f464ebc31f59d1f5a074e241849c361041decd162b82e8498b53a71d657b7549963ffffffff9510610507575b5050600184811b018155610439565b8601355f19600387901b60f8161c191690558b806104f8565b9192896001819286890135815501940192016104b8565b634e487b7160e01b5f52604160045260245ffd5b634e487b7160e01b5f52601160045260245ffd5b34610276576060366003190112610276576105786118ea565b6001600160401b03604435911690815f52600460205260405f20906002820160ff815460201c161561068057916001015f5b8154811015610018576105bd8183611c81565b60018060a01b0391549060031b1c1690855f52600560205260405f2060018060a01b0383165f5260205261061d61060f63ffffffff61060860405f2054828082169160201c16611caa565b1686611dc3565b63ffffffff87541690611dd6565b91865f52600960205260405f2060018060a01b0382165f5260205260405f2092835481810180911161054b57602089927f32d76c86119184f0ced9b384182d74c679c9db522a4a3629e72c7b3a06ba8ecf9260019755604051908152a3016105aa565b8363b5ef24d760e01b5f5260045260245ffd5b34610276576060366003190112610276576106ac6118ea565b506106b56119f6565b506106be611900565b50610018611e32565b34610276576020366003190112610276576106e06118ea565b506080604051600181525f60208201525f60408201525f6060820152f35b34610276576020366003190112610276576001600160a01b0361071f611a0c565b165f52600760205263ffffffff60405f2080549061077b60ff600261074660018501611b32565b93015416916040519484818796168652818160201c16602087015260401c16604085015260a0606085015260a0840190611bd2565b90151560808301520390f35b34610276575f3660031901126102765760206001600160401b0360035416604051908152f35b34610276576040366003190112610276576107c6611a0c565b506106be611916565b60c0366003190112610276576107e36118ea565b506107ec611985565b506107f5611900565b506107fe611a22565b506084356001600160401b0381116102765761081e903690600401611958565b505060a4356001600160401b0381116102765761083f903690600401611958565b5050610018611e32565b60e03660031901126102765761085d6118ea565b506108666119f6565b506044356001600160401b03811161027657610886903690600401611bf6565b50506064356001600160401b038111610276576108a7903690600401611958565b50506108b1611942565b506106be611a38565b34610276576040366003190112610276576108d36118ea565b6001600160401b036108e36119f6565b91165f52600960205260405f209060018060a01b03165f52602052602060405f2054604051908152f35b34610276576040366003190112610276576109266118ea565b6001600160401b036109366119f6565b91165f52600560205260405f209060018060a01b03165f52602052606060405f20546040519063ffffffff8116825263ffffffff8160201c16602083015260018060a01b039060401c166040820152f35b34610276576020366003190112610276576001600160401b036109a86118ea565b165f526004602052600160405f2001604051806020835491828152019081935f5260205f20905f5b818110610a3157505050816109e6910382611b11565b604051918291602083019060208452518091526040830191905f5b818110610a0f575050500390f35b82516001600160a01b0316845285945060209384019390920191600101610a01565b82546001600160a01b03168452602090930192600192830192016109d0565b606036600319011261027657610a64611a0c565b50610a6d611916565b506106be611995565b34610276576020366003190112610276576001600160401b03610a976118ea565b16805f52600460205260405f20610aae8154611ad9565b15610d3d575f828152600560209081526040808320338452825290912054901c63ffffffff1615610d2657815f52600660205260405f20905f5b825480821015610d1d57610afc8285611c81565b505460401c6001600160a01b03163314610b195750600101610ae8565b9192915f19810190811161054b57610b34610b3c9184611c81565b509183611c81565b610ca757818103610cba575b505080548015610c88575f190190610b608282611c81565b610ca7575f9055555b5f828152600560209081526040808320338452825280832083905584835260049091528120600101905b815480821015610c9c57610ba78284611c81565b905460039190911b1c6001600160a01b03163314610bc85750600101610b93565b9192915f1981019190821161054b57610c00610be7610c249386611c81565b905460039190911b1c6001600160a01b03169185611c81565b81546001600160a01b0393841660039290921b91821b9390911b1916919091179055565b8154918215610c88576002925f190190610c3e8282611c81565b81549060018060a01b039060031b1b19169055555b01805464ff000000001916905533907f3a5a3dd759cc2ada419370a30f3f18ee303db1567179a2cc09255de051e342895f80a3005b634e487b7160e01b5f52603160045260245ffd5b505050600290610c53565b634e487b7160e01b5f525f60045260245ffd5b8154815463ffffffff90911663ffffffff19821681178355835467ffffffff000000001667ffffffffffffffff1990921617178155610d1691548154600160401b600160e01b031916600160401b600160e01b03909116179055565b8380610b48565b50509050610b69565b506330925ddf60e11b5f526004523360245260445ffd5b506372b0800960e11b5f5260045260245ffd5b3461027657604036600319011261027657610d696118ea565b506106be6119f6565b3461027657606036600319011261027657610d8b6118ea565b50610d946119f6565b5060443561ffff81160361027657610018611e32565b608036600319011261027657610dbe6118ea565b50610dc7611985565b50610dd0611900565b506064356001600160401b0381116102765761083f903690600401611958565b3461027657602036600319011261027657610e096118ea565b5060408051600181525f6020820152f35b346102765760c036600319011261027657610e336118ea565b50610e3c611916565b50610e45611900565b50610e4e611a22565b506084356001600160401b03811161027657610e6e903690600401611bf6565b50506106be61192c565b3461027657610e86366119a5565b50505050610018611e32565b3461027657604036600319011261027657610eab6118ea565b6001600160401b03610ebb6119f6565b9116805f52600460205260405f2091610ed48354611ad9565b15610d3d57815f52600560205260405f2060018060a01b0382165f5260205260405f205463ffffffff8160201c16918215610f4d576020610f458663ffffffff6002610f3b89610f268985168b611caa565b905f52600887528360405f2054911690611dc3565b9201541690611dd6565b604051908152f35b836330925ddf60e11b5f5260045260018060a01b031660245260445ffd5b611a4e565b610df0565b34610276576020366003190112610276576001600160401b03610f966118ea565b165f526004602052610fcf60405f20610fae81611b32565b906003600282015491015460ff604051948594608086526080860190611bd2565b9263ffffffff8116602086015260201c161515604084015260608301520390f35b610ff936611a96565b611004929192611e32565b820160e0838203126102765782356001600160401b038111610276578161102c918501611d1f565b5061103960208401611a85565b9061104660408501611a85565b9361105360608201611a85565b5061106060808201611a85565b5061106d60a08201611a85565b9160c08201356001600160401b0381116102765761108b9201611d1f565b936040519260a08401918483106001600160401b0384111761053757604092835263ffffffff918216855281166020808601918252938216858401908152606086019788526001608087019081526001600160a01b039097165f908152600786529390932094518554915167ffffffffffffffff19909216921691909117921b67ffffffff00000000169190911782555163ffffffff60401b82549160401b169063ffffffff60401b19161781556001810192519283516001600160401b038111610537576111648161115e8454611ad9565b84611d74565b6020601f82116001146111b957908061119692600296975f926111ae575b50508160011b915f199060031b1c19161790565b90555b019051151560ff801983541691161790555f80f35b015190508780611182565b601f19821695835f52815f20965f5b81811061120657509160029697918460019594106111ee575b505050811b019055611199565b01515f1960f88460031b161c191690558680806111e1565b838301518955600190980197602093840193016111c8565b34610276576020366003190112610276576001600160401b0361123f6118ea565b165f526008602052602060405f2054604051908152f35b34610276575f366003190112610276575f546040516001600160a01b039091168152602090f35b34610276575f3660031901126102765760408051600181525f6020820152f35b34610276576040366003190112610276576112b66118ea565b506112bf611985565b50602060405160018152f35b34610276576060366003190112610276576112e46118ea565b6112ec611a72565b60443563ffffffff811692838203610276576001600160401b03811692835f52600460205260405f20926113208454611ad9565b156116d757335f52600760205260405f209160ff600284015416156116c45763ffffffff8116928784108015906116b1575b61168b575f878152600560209081526040808320338452825290912054901c63ffffffff1661167457865f52600660205260405f20915f938354945b85811061161657506113a663ffffffff928392611caa565b925460401c16911681029563ffffffff871696870361054b576002019563ffffffff87541680156116025763ffffffff9104168082106115e957505060405191606083018381106001600160401b0382111761053757604052838352876020840152336040840152600160401b8110156105375761142991600182018155611c81565b919091610ca75761143d8161145a93611cc4565b5f8681526005602090815260408083203384529091529020611cc4565b835f526004602052600160405f200194855495865f5b818110611596575b50600160401b811015610537576114988160016114b69301845583611c81565b81546001600160a01b0360039290921b91821b19163390911b179055565b80545f19810190811161054b575b87811161155457506114986115159596976114de92611c81565b6040519182526020820152847fb4490bcad589cb65be3f643cbedcba2148cdfe7666ae68db2dcd1174b571774460403393a3611e5e565b61151b57005b805464ff0000000019166401000000001790557ffaa271d62224d5cd3aa6bc0ebd631bf2be4eacf15505817fd09e3e614079cedf5f80a2005b5f19810181811161054b5761156c6115889184611c81565b905460039190911b1c6001600160a01b0316610c008385611c81565b801561054b575f19016114c4565b875f52600560205260405f206115ac8285611c81565b905460039190911b1c6001600160a01b03165f908152602091909152604090205463ffffffff1685106115e157600101611470565b975088611478565b6354d2671360e11b5f523360045260245260445260645ffd5b634e487b7160e01b5f52601260045260245ffd5b63ffffffff6116258287611c81565b505460201c1687108061165a575b61163f5760010161138e565b8a878b6309ed606960e21b5f5260045260245260445260645ffd5b5063ffffffff61166a8287611c81565b5054168b11611633565b866302688d1d60e11b5f526004523360245260445ffd5b838863ffffffff600289015416916332bd6ff960e01b5f5260045260245260445260645ffd5b5063ffffffff6002870154168811611352565b63bd62013360e01b5f523360045260245ffd5b846372b0800960e11b5f5260045260245ffd5b34610276576040366003190112610276576117036118ea565b5061170c611985565b5060408051611a2c81525f6020820152f35b34610276576040366003190112610276576117376118ea565b506102cf611985565b34610276576101603660031901126102765761175a6118ea565b50611763611985565b5061176c611900565b506064356001600160401b0381116102765761178c903690600401611958565b50503660e41161027657366101641161027657610018611e32565b34610276576020366003190112610276576106be611a0c565b34610276576060366003190112610276576117d96118ea565b6117e16119f6565b906044356001600160a01b03811690819003610276575f546001600160a01b0381168061186e5750611814823314611c48565b6001600160a01b031916175f555b5f805467ffffffffffffffff60a01b191660a09290921b67ffffffffffffffff60a01b16919091179055600180546001600160a01b0319166001600160a01b0392909216919091179055005b91905061187c823314611c48565b146118225760405162461bcd60e51b815260206004820152600f60248201526e0e8c2dcced8ca40dad2e6dac2e8c6d608b1b6044820152606490fd5b34610276576020366003190112610276576118d16118ea565b506001546040516001600160a01b039091168152602090f35b600435906001600160401b038216820361027657565b604435906001600160401b038216820361027657565b602435906001600160401b038216820361027657565b60a435906001600160401b038216820361027657565b608435906001600160401b038216820361027657565b9181601f84011215610276578235916001600160401b038311610276576020838186019501011161027657565b6024359060ff8216820361027657565b6044359060ff8216820361027657565b906060600319830112610276576004356001600160401b03811681036102765791602435906001600160401b038211610276576119e491600401611958565b909160443560ff811681036102765790565b602435906001600160a01b038216820361027657565b600435906001600160a01b038216820361027657565b606435906001600160a01b038216820361027657565b60a435906001600160a01b038216820361027657565b3461027657602036600319011261027657611a676118ea565b506020604051308152f35b6024359063ffffffff8216820361027657565b359063ffffffff8216820361027657565b906040600319830112610276576004356001600160a01b03811681036102765791602435906001600160401b03821161027657611ad591600401611958565b9091565b90600182811c92168015611b07575b6020831014611af357565b634e487b7160e01b5f52602260045260245ffd5b91607f1691611ae8565b90601f801991011681019081106001600160401b0382111761053757604052565b9060405191825f825492611b4584611ad9565b8084529360018116908115611bb05750600114611b6c575b50611b6a92500383611b11565b565b90505f9291925260205f20905f915b818310611b94575050906020611b6a928201015f611b5d565b6020919350806001915483858901015201910190918492611b7b565b905060209250611b6a94915060ff191682840152151560051b8201015f611b5d565b805180835260209291819084018484015e5f828201840152601f01601f1916010190565b9181601f84011215610276578235916001600160401b038311610276576020808501948460051b01011161027657565b3461027657604036600319011261027657611c3f6118ea565b506112bf6119f6565b15611c4f57565b60405162461bcd60e51b815260206004820152600a6024820152696e6f742074616e676c6560b01b6044820152606490fd5b8054821015611c96575f5260205f2001905f90565b634e487b7160e01b5f52603260045260245ffd5b9063ffffffff8091169116039063ffffffff821161054b57565b8151815460208085015167ffffffff00000000911b1663ffffffff90921667ffffffffffffffff1990911617178155611b6a916040908101518254600160401b600160e01b031916911b600160401b600160e01b0316179055565b81601f82011215610276578035906001600160401b0382116105375760405192611d53601f8401601f191660200185611b11565b8284526020838301011161027657815f926020809301838601378301015290565b601f8211611d8157505050565b5f5260205f20906020601f840160051c83019310611db9575b601f0160051c01905b818110611dae575050565b5f8155600101611da3565b9091508190611d9a565b8181029291811591840414171561054b57565b8115611602570490565b6001600160a01b03909116908115611e2b576001600160401b0316805f52600260205260405f205415611e2b575f526002602052600160405f2001905f5260205260405f2054151590565b5050600190565b5f546001600160a01b031633819003611e485750565b63032dd5e360e11b5f523360045260245260445ffd5b6001600160401b0316805f52600460205260405f20600181018054908115611f0f5792905f935f925b828410611ea4575050505063ffffffff6002819201541691161490565b90919294815f52600560205260405f20611ebe8785611c81565b905460039190911b1c6001600160a01b03165f90815260209190915260409020549063ffffffff90811690821603611f055760201c63ffffffff1694600101929190611e87565b5050505050505f90565b505050505f9056fea2646970667358221220115393c3e8f111730888413b8c00d1bd91793512471e8fb55b2f2597268304ac64736f6c634300081a0033","linkReferences":{}},"methodIdentifiers":{"basePricePerToken(uint64)":"5e7cb228","blueprintId()":"fe0b15e7","blueprintOwner()":"f8407662","canJoin(uint64,address)":"b47242e8","canLeave(uint64,address)":"e518de76","createPipeline(string,uint32,uint256)":"e1ce778e","forceRemoveAllowsBelowMin(uint64)":"f3e28f32","getAggregationThreshold(uint64,uint8)":"25fcc64e","getExitConfig(uint64)":"d2672ed4","getHeartbeatInterval(uint64)":"0068080b","getHeartbeatThreshold(uint64)":"92cbb78e","getMinOperatorStake()":"54dce6c2","getNonPaymentTerminationPolicy(uint64)":"71e8e85d","getOperatorPricing(uint64,address)":"7d41c7c1","getPipelineOperators(uint64)":"bc3e78e8","getRequiredResultCount(uint64,uint8)":"4c443e04","getSlashingWindow(uint64)":"3fdadfcc","isFullyCovered(uint64)":"e3645265","joinPipeline(uint64,uint32,uint32)":"3629ab6d","layerRanges(uint64,address)":"bd1d453c","leavePipeline(uint64)":"a53bf432","nextPipelineId()":"ca4df499","onAggregatedResult(uint64,uint8,uint64,bytes,uint256,uint256[2],uint256[4])":"158bb2eb","onApprove(address,uint64,uint8)":"b159eb34","onBlueprintCreated(uint64,address,address)":"0b6535d7","onExitCanceled(uint64,address)":"5440662c","onExitScheduled(uint64,address,uint64)":"e0559c63","onJobCall(uint64,uint8,uint64,bytes)":"9838caa3","onJobResult(uint64,uint8,uint64,address,bytes,bytes)":"c40c80d1","onOperatorJoined(uint64,address,uint16)":"9aa26a92","onOperatorLeft(uint64,address)":"965d231b","onRegister(address,bytes)":"67793cc6","onReject(address,uint64)":"c9cd4a18","onRequest(uint64,address,address[],bytes,uint64,address,uint256)":"c28cd812","onServiceInitialized(uint64,uint64,uint64,address,address[],uint64)":"82a1ece4","onServiceTermination(uint64,address)":"a24e8a90","onSlash(uint64,bytes,uint8)":"7e14b919","onUnappliedSlash(uint64,bytes,uint8)":"0881898f","onUnregister(address)":"151a4576","onUpdatePreferences(address,bytes)":"f58e2066","operatorCaps(address)":"cb110dc1","operatorRevenue(uint64,address)":"c10bb5a2","pipelineCount()":"2ab4d70a","pipelines(uint64)":"6a3578c6","queryDeveloperPaymentAddress(uint64)":"08179f35","queryDisputeOrigin(uint64)":"14b4df4c","queryIsPaymentAssetAllowed(uint64,address)":"e390fcdb","querySlashingOrigin(uint64)":"74ceeb55","recordUsage(uint64,uint256,uint256)":"e13422e5","requiresAggregation(uint64,uint8)":"19ed5bb2","tangleCore()":"5a936dc6"},"id":26}