{"abi":[{"type":"function","name":"basePricePerToken","inputs":[{"name":"","type":"uint64","internalType":"uint64"}],"outputs":[{"name":"","type":"uint256","internalType":"uint256"}],"stateMutability":"view"},{"type":"function","name":"createPipeline","inputs":[{"name":"modelId","type":"string","internalType":"string"},{"name":"totalLayers","type":"uint32","internalType":"uint32"},{"name":"pricePerToken","type":"uint256","internalType":"uint256"}],"outputs":[{"name":"pipelineId","type":"uint64","internalType":"uint64"}],"stateMutability":"nonpayable"},{"type":"function","name":"getOperatorPricing","inputs":[{"name":"pipelineId","type":"uint64","internalType":"uint64"},{"name":"operator","type":"address","internalType":"address"}],"outputs":[{"name":"pricePerToken","type":"uint256","internalType":"uint256"}],"stateMutability":"view"},{"type":"function","name":"getPipelineOperators","inputs":[{"name":"pipelineId","type":"uint64","internalType":"uint64"}],"outputs":[{"name":"","type":"address[]","internalType":"address[]"}],"stateMutability":"view"},{"type":"function","name":"isFullyCovered","inputs":[{"name":"pipelineId","type":"uint64","internalType":"uint64"}],"outputs":[{"name":"","type":"bool","internalType":"bool"}],"stateMutability":"view"},{"type":"function","name":"joinPipeline","inputs":[{"name":"pipelineId","type":"uint64","internalType":"uint64"},{"name":"layerStart","type":"uint32","internalType":"uint32"},{"name":"layerEnd","type":"uint32","internalType":"uint32"}],"outputs":[],"stateMutability":"nonpayable"},{"type":"function","name":"layerRanges","inputs":[{"name":"","type":"uint64","internalType":"uint64"},{"name":"","type":"address","internalType":"address"}],"outputs":[{"name":"start","type":"uint32","internalType":"uint32"},{"name":"end","type":"uint32","internalType":"uint32"},{"name":"operator","type":"address","internalType":"address"}],"stateMutability":"view"},{"type":"function","name":"leavePipeline","inputs":[{"name":"pipelineId","type":"uint64","internalType":"uint64"}],"outputs":[],"stateMutability":"nonpayable"},{"type":"function","name":"nextPipelineId","inputs":[],"outputs":[{"name":"","type":"uint64","internalType":"uint64"}],"stateMutability":"view"},{"type":"function","name":"onRegister","inputs":[{"name":"operator","type":"address","internalType":"address"},{"name":"registrationInputs","type":"bytes","internalType":"bytes"}],"outputs":[],"stateMutability":"nonpayable"},{"type":"function","name":"operatorCaps","inputs":[{"name":"","type":"address","internalType":"address"}],"outputs":[{"name":"layerStart","type":"uint32","internalType":"uint32"},{"name":"layerEnd","type":"uint32","internalType":"uint32"},{"name":"totalVramMib","type":"uint32","internalType":"uint32"},{"name":"endpoint","type":"string","internalType":"string"},{"name":"active","type":"bool","internalType":"bool"}],"stateMutability":"view"},{"type":"function","name":"operatorRevenue","inputs":[{"name":"","type":"uint64","internalType":"uint64"},{"name":"","type":"address","internalType":"address"}],"outputs":[{"name":"","type":"uint256","internalType":"uint256"}],"stateMutability":"view"},{"type":"function","name":"pipelineCount","inputs":[],"outputs":[{"name":"","type":"uint64","internalType":"uint64"}],"stateMutability":"view"},{"type":"function","name":"pipelines","inputs":[{"name":"","type":"uint64","internalType":"uint64"}],"outputs":[{"name":"modelId","type":"string","internalType":"string"},{"name":"totalLayers","type":"uint32","internalType":"uint32"},{"name":"active","type":"bool","internalType":"bool"},{"name":"createdAt","type":"uint256","internalType":"uint256"}],"stateMutability":"view"},{"type":"function","name":"recordUsage","inputs":[{"name":"pipelineId","type":"uint64","internalType":"uint64"},{"name":"totalTokens","type":"uint256","internalType":"uint256"},{"name":"totalPayment","type":"uint256","internalType":"uint256"}],"outputs":[],"stateMutability":"nonpayable"},{"type":"event","name":"OperatorJoined","inputs":[{"name":"pipelineId","type":"uint64","indexed":true,"internalType":"uint64"},{"name":"operator","type":"address","indexed":true,"internalType":"address"},{"name":"layerStart","type":"uint32","indexed":false,"internalType":"uint32"},{"name":"layerEnd","type":"uint32","indexed":false,"internalType":"uint32"}],"anonymous":false},{"type":"event","name":"OperatorLeft","inputs":[{"name":"pipelineId","type":"uint64","indexed":true,"internalType":"uint64"},{"name":"operator","type":"address","indexed":true,"internalType":"address"}],"anonymous":false},{"type":"event","name":"PaymentDistributed","inputs":[{"name":"pipelineId","type":"uint64","indexed":true,"internalType":"uint64"},{"name":"operator","type":"address","indexed":true,"internalType":"address"},{"name":"amount","type":"uint256","indexed":false,"internalType":"uint256"}],"anonymous":false},{"type":"event","name":"PipelineActivated","inputs":[{"name":"pipelineId","type":"uint64","indexed":true,"internalType":"uint64"}],"anonymous":false},{"type":"event","name":"PipelineCreated","inputs":[{"name":"pipelineId","type":"uint64","indexed":true,"internalType":"uint64"},{"name":"modelId","type":"string","indexed":false,"internalType":"string"},{"name":"totalLayers","type":"uint32","indexed":false,"internalType":"uint32"}],"anonymous":false},{"type":"error","name":"InsufficientVram","inputs":[{"name":"operator","type":"address","internalType":"address"},{"name":"required","type":"uint32","internalType":"uint32"},{"name":"available","type":"uint32","internalType":"uint32"}]},{"type":"error","name":"LayerRangeInvalid","inputs":[{"name":"start","type":"uint32","internalType":"uint32"},{"name":"end","type":"uint32","internalType":"uint32"},{"name":"totalLayers","type":"uint32","internalType":"uint32"}]},{"type":"error","name":"LayerRangeOverlap","inputs":[{"name":"pipelineId","type":"uint64","internalType":"uint64"},{"name":"start","type":"uint32","internalType":"uint32"},{"name":"end","type":"uint32","internalType":"uint32"}]},{"type":"error","name":"OperatorAlreadyInPipeline","inputs":[{"name":"pipelineId","type":"uint64","internalType":"uint64"},{"name":"operator","type":"address","internalType":"address"}]},{"type":"error","name":"OperatorNotInPipeline","inputs":[{"name":"pipelineId","type":"uint64","internalType":"uint64"},{"name":"operator","type":"address","internalType":"address"}]},{"type":"error","name":"OperatorNotRegistered","inputs":[{"name":"operator","type":"address","internalType":"address"}]},{"type":"error","name":"PipelineNotActive","inputs":[{"name":"pipelineId","type":"uint64","internalType":"uint64"}]},{"type":"error","name":"PipelineNotFound","inputs":[{"name":"pipelineId","type":"uint64","internalType":"uint64"}]}],"bytecode":{"object":"0x60808060405234601557611589908161001a8239f35b5f80fdfe6080806040526004361015610012575f80fd5b5f3560e01c9081632ab4d70a14611169575080633629ab6d14610d4a5780635e7cb22814610d1257806367793cc614610abe5780636a3578c614610a435780637d41c7c11461096a578063a53bf43214610691578063bc3e78e8146105c8578063bd1d453c1461054e578063c10bb5a2146104fb578063ca4df499146104d6578063cb110dc11461044d578063e13422e514610317578063e1ce778e146100f25763e3645265146100c1575f80fd5b346100ee5760203660031901126100ee5760206100e46100df61118b565b61149a565b6040519015158152f35b5f80fd5b346100ee5760603660031901126100ee576004356001600160401b0381116100ee576101229036906004016111f1565b61012a6111a1565b905f54906001600160401b038216916001600160401b038314610303576001600160401b036001840116906001600160401b031916175f55815f52600160205260405f20936001600160401b0382116102ef57846101948361018e6020985461121e565b8361142e565b5f601f841160011461026157918363ffffffff86976060946101ee84807f4f464ebc31f59d1f5a074e241849c361041decd162b82e8498b53a71d657b7549a995f91610256575b508160011b915f199060031b1c19161790565b81555b60028101838316841982541617815564ff00000000198154169055600342910155875f5260058a5260443560405f205560405195869460408652816040870152868601375f8484018601521688830152601f01601f19168101030190a2604051908152f35b90508701358e6101db565b601f19841690825f52875f20915f5b8181106102d85750869760609487969487947f4f464ebc31f59d1f5a074e241849c361041decd162b82e8498b53a71d657b7549963ffffffff95106102bf575b5050600184811b0181556101f1565b8601355f19600387901b60f8161c191690558b806102b0565b919289600181928689013581550194019201610270565b634e487b7160e01b5f52604160045260245ffd5b634e487b7160e01b5f52601160045260245ffd5b346100ee5760603660031901126100ee5761033061118b565b6001600160401b03604435911690815f52600160205260405f20906002820160ff815460201c161561043a57916001015f5b815481101561043857610375818361133b565b60018060a01b0391549060031b1c1690855f52600260205260405f2060018060a01b0383165f526020526103d56103c763ffffffff6103c060405f2054828082169160201c16611364565b168661147d565b63ffffffff87541690611490565b91865f52600660205260405f2060018060a01b0382165f5260205260405f2092835481810180911161030357602089927f32d76c86119184f0ced9b384182d74c679c9db522a4a3629e72c7b3a06ba8ecf9260019755604051908152a301610362565b005b8363b5ef24d760e01b5f5260045260245ffd5b346100ee5760203660031901126100ee576001600160a01b0361046e6111c5565b165f52600460205263ffffffff60405f208054906104ca60ff600261049560018501611277565b93015416916040519484818796168652818160201c16602087015260401c16604085015260a0606085015260a0840190611317565b90151560808301520390f35b346100ee575f3660031901126100ee5760206001600160401b035f5416604051908152f35b346100ee5760403660031901126100ee5761051461118b565b6001600160401b036105246111db565b91165f52600660205260405f209060018060a01b03165f52602052602060405f2054604051908152f35b346100ee5760403660031901126100ee5761056761118b565b6001600160401b036105776111db565b91165f52600260205260405f209060018060a01b03165f52602052606060405f20546040519063ffffffff8116825263ffffffff8160201c16602083015260018060a01b039060401c166040820152f35b346100ee5760203660031901126100ee576001600160401b036105e961118b565b165f526001602052600160405f2001604051806020835491828152019081935f5260205f20905f5b8181106106725750505081610627910382611256565b604051918291602083019060208452518091526040830191905f5b818110610650575050500390f35b82516001600160a01b0316845285945060209384019390920191600101610642565b82546001600160a01b0316845260209093019260019283019201610611565b346100ee5760203660031901126100ee576001600160401b036106b261118b565b16805f52600160205260405f206106c9815461121e565b15610957575f828152600260209081526040808320338452825290912054901c63ffffffff161561094057815f52600360205260405f20905f5b82548082101561093757610717828561133b565b505460401c6001600160a01b031633146107345750600101610703565b9192915f1981019081116103035761074f610757918461133b565b50918361133b565b6108c1578181036108d4575b5050805480156108a2575f19019061077b828261133b565b6108c1575f9055555b5f8281526002602090815260408083203384528252808320839055848352600191829052822001905b8154808210156108b6576107c1828461133b565b905460039190911b1c6001600160a01b031633146107e257506001016107ad565b9192915f198101919082116103035761081a61080161083e938661133b565b905460039190911b1c6001600160a01b0316918561133b565b81546001600160a01b0393841660039290921b91821b9390911b1916919091179055565b81549182156108a2576002925f190190610858828261133b565b81549060018060a01b039060031b1b19169055555b01805464ff000000001916905533907f3a5a3dd759cc2ada419370a30f3f18ee303db1567179a2cc09255de051e342895f80a3005b634e487b7160e01b5f52603160045260245ffd5b50505060029061086d565b634e487b7160e01b5f525f60045260245ffd5b8154815463ffffffff90911663ffffffff19821681178355835467ffffffff000000001667ffffffffffffffff199092161717815561093091548154600160401b600160e01b031916600160401b600160e01b03909116179055565b8380610763565b50509050610784565b506330925ddf60e11b5f526004523360245260445ffd5b506372b0800960e11b5f5260045260245ffd5b346100ee5760403660031901126100ee5761098361118b565b6001600160401b036109936111db565b9116805f52600160205260405f20916109ac835461121e565b1561095757815f52600260205260405f2060018060a01b0382165f5260205260405f205463ffffffff8160201c16918215610a25576020610a1d8663ffffffff6002610a13896109fe8985168b611364565b905f52600587528360405f205491169061147d565b9201541690611490565b604051908152f35b836330925ddf60e11b5f5260045260018060a01b031660245260445ffd5b346100ee5760203660031901126100ee576001600160401b03610a6461118b565b165f526001602052610a9d60405f20610a7c81611277565b906003600282015491015460ff604051948594608086526080860190611317565b9263ffffffff8116602086015260201c161515604084015260608301520390f35b346100ee5760403660031901126100ee57610ad76111c5565b6024356001600160401b0381116100ee57610af69036906004016111f1565b8192910160e0838203126100ee5782356001600160401b0381116100ee5781610b209185016113d9565b50610b2d602084016111b4565b90610b3a604085016111b4565b93610b47606082016111b4565b50610b54608082016111b4565b50610b6160a082016111b4565b9160c08201356001600160401b0381116100ee57610b7f92016113d9565b936040519260a08401918483106001600160401b038411176102ef57604092835263ffffffff918216855281166020808601918252938216858401908152606086019788526001608087019081526001600160a01b039097165f908152600486529390932094518554915167ffffffffffffffff19909216921691909117921b67ffffffff00000000169190911782555163ffffffff60401b82549160401b169063ffffffff60401b19161781556001810192519283516001600160401b0381116102ef57610c5881610c52845461121e565b8461142e565b6020601f8211600114610cad579080610c8a92600296975f92610ca2575b50508160011b915f199060031b1c19161790565b90555b019051151560ff801983541691161790555f80f35b015190508780610c76565b601f19821695835f52815f20965f5b818110610cfa5750916002969791846001959410610ce2575b505050811b019055610c8d565b01515f1960f88460031b161c19169055868080610cd5565b83830151895560019098019760209384019301610cbc565b346100ee5760203660031901126100ee576001600160401b03610d3361118b565b165f526005602052602060405f2054604051908152f35b346100ee5760603660031901126100ee57610d6361118b565b610d6b6111a1565b60443563ffffffff8116928382036100ee576001600160401b03811692835f52600160205260405f2092610d9f845461121e565b1561115657335f52600460205260405f209160ff600284015416156111435763ffffffff811692878410801590611130575b61110a575f878152600260209081526040808320338452825290912054901c63ffffffff166110f357865f52600360205260405f20915f938354945b8581106110955750610e2563ffffffff928392611364565b925460401c16911681029563ffffffff8716968703610303576002019563ffffffff87541680156110815763ffffffff91041680821061106857505060405191606083018381106001600160401b038211176102ef57604052838352876020840152336040840152600160401b8110156102ef57610ea89160018201815561133b565b9190916108c157610ebc81610ed99361137e565b5f868152600260209081526040808320338452909152902061137e565b835f526001602052600160405f200194855495865f5b818110611015575b50600160401b8110156102ef57610f17816001610f35930184558361133b565b81546001600160a01b0360039290921b91821b19163390911b179055565b80545f198101908111610303575b878111610fd35750610f17610f94959697610f5d9261133b565b6040519182526020820152847fb4490bcad589cb65be3f643cbedcba2148cdfe7666ae68db2dcd1174b571774460403393a361149a565b610f9a57005b805464ff0000000019166401000000001790557ffaa271d62224d5cd3aa6bc0ebd631bf2be4eacf15505817fd09e3e614079cedf5f80a2005b5f19810181811161030357610feb611007918461133b565b905460039190911b1c6001600160a01b031661081a838561133b565b8015610303575f1901610f43565b875f52600260205260405f2061102b828561133b565b905460039190911b1c6001600160a01b03165f908152602091909152604090205463ffffffff16851061106057600101610eef565b975088610ef7565b6354d2671360e11b5f523360045260245260445260645ffd5b634e487b7160e01b5f52601260045260245ffd5b63ffffffff6110a4828761133b565b505460201c168710806110d9575b6110be57600101610e0d565b8a878b6309ed606960e21b5f5260045260245260445260645ffd5b5063ffffffff6110e9828761133b565b5054168b116110b2565b866302688d1d60e11b5f526004523360245260445ffd5b838863ffffffff600289015416916332bd6ff960e01b5f5260045260245260445260645ffd5b5063ffffffff6002870154168811610dd1565b63bd62013360e01b5f523360045260245ffd5b846372b0800960e11b5f5260045260245ffd5b346100ee575f3660031901126100ee576020906001600160401b035f54168152f35b600435906001600160401b03821682036100ee57565b6024359063ffffffff821682036100ee57565b359063ffffffff821682036100ee57565b600435906001600160a01b03821682036100ee57565b602435906001600160a01b03821682036100ee57565b9181601f840112156100ee578235916001600160401b0383116100ee57602083818601950101116100ee57565b90600182811c9216801561124c575b602083101461123857565b634e487b7160e01b5f52602260045260245ffd5b91607f169161122d565b90601f801991011681019081106001600160401b038211176102ef57604052565b9060405191825f82549261128a8461121e565b80845293600181169081156112f557506001146112b1575b506112af92500383611256565b565b90505f9291925260205f20905f915b8183106112d95750509060206112af928201015f6112a2565b60209193508060019154838589010152019101909184926112c0565b9050602092506112af94915060ff191682840152151560051b8201015f6112a2565b805180835260209291819084018484015e5f828201840152601f01601f1916010190565b8054821015611350575f5260205f2001905f90565b634e487b7160e01b5f52603260045260245ffd5b9063ffffffff8091169116039063ffffffff821161030357565b8151815460208085015167ffffffff00000000911b1663ffffffff90921667ffffffffffffffff19909116171781556112af916040908101518254600160401b600160e01b031916911b600160401b600160e01b0316179055565b81601f820112156100ee578035906001600160401b0382116102ef576040519261140d601f8401601f191660200185611256565b828452602083830101116100ee57815f926020809301838601378301015290565b601f821161143b57505050565b5f5260205f20906020601f840160051c83019310611473575b601f0160051c01905b818110611468575050565b5f815560010161145d565b9091508190611454565b8181029291811591840414171561030357565b8115611081570490565b6001600160401b0316805f52600160205260405f2060018101805490811561154b5792905f935f925b8284106114e0575050505063ffffffff6002819201541691161490565b90919294815f52600260205260405f206114fa878561133b565b905460039190911b1c6001600160a01b03165f90815260209190915260409020549063ffffffff908116908216036115415760201c63ffffffff16946001019291906114c3565b5050505050505f90565b505050505f9056fea264697066735822122001b8e4482e7c6cd2a31ea7b1cc642748fc29919dc34660a413efb7ffa38c7aa664736f6c634300081a0033","linkReferences":{}},"methodIdentifiers":{"basePricePerToken(uint64)":"5e7cb228","createPipeline(string,uint32,uint256)":"e1ce778e","getOperatorPricing(uint64,address)":"7d41c7c1","getPipelineOperators(uint64)":"bc3e78e8","isFullyCovered(uint64)":"e3645265","joinPipeline(uint64,uint32,uint32)":"3629ab6d","layerRanges(uint64,address)":"bd1d453c","leavePipeline(uint64)":"a53bf432","nextPipelineId()":"ca4df499","onRegister(address,bytes)":"67793cc6","operatorCaps(address)":"cb110dc1","operatorRevenue(uint64,address)":"c10bb5a2","pipelineCount()":"2ab4d70a","pipelines(uint64)":"6a3578c6","recordUsage(uint64,uint256,uint256)":"e13422e5"},"id":23}